:1000000058270020B9310000B7940000A531000046
:10001000A5310000A5310000A5310000000000005E
:100020000000000000000000000000001533000088
:10003000A531000000000000C1320000A531000021
:1000400089340000893400008934000089340000BC
:1000500089340000893400008934000089340000AC
:10006000893400008934000089340000893400009C
:10007000893400008934000089340000893400008C
:10008000893400008934000089340000893400007C
:10009000893400008934000089340000893400006C
:1000A000893400008934000089340000893400005C
:1000B000893400008934000053B94AB9002908BFC7
:1000C00000281CBF4FF0FF314FF0FF3000F00CB89C
:1000D000ADF1080C6DE904CE00F010F8DDF804E095
:1000E000DDE9022304B07047704700BF034613F8F0
:1000F000012B002AFBD1181A013870472DE9F0476F
:1001000086468C460846089E154674461946002BBE
:1001100040F0C2808542B2FA82F245D94AB1C2F1BA
:10012000200300FA02FC2EFA03F3954043EA0C0C7C
:1001300094404FEA154EA8B2BCFBFEF8230C0EFB10
:1001400018CC08FB00F943EA0C43994528D9EB1871
:1001500008F1FF3704D2994502D9A8F102072B44D0
:10016000A3EB0903A4B2B3FBFEFC0EFB1C330CFB98
:1001700000F044EA0344A04214D92C190CF1FF33D7
:1001800004D2A04202D9ACF102032C44241A43EA5F
:1001900007401EB1D440002334607360BDE8F0878F
:1001A0004746DDE76346F1E792BB431B01214FEA77
:1001B000154EAFB2B3FBFEFC200C0EFB1C330CFB48
:1001C00007F840EA0343984562D9EB180CF1FF3079
:1001D00004D2984502D9ACF102002B44A3EB0803EA
:1001E000A4B2B3FBFEFC0EFB1C330CFB07F744EA86
:1001F0000344A7424ED92C190CF1FF3304D2A74275
:1002000002D9ACF102032C44E41B43EA0040C0E7EE
:10021000C2F1200320FA03F1954090402EFA03F337
:1002200003434FEA154EAFB2B1FBFEFC0EFB1C10B0
:10023000190C0CFB07F841EA0041884504FA02F466
:1002400022D969180CF1FF3004D2884502D9ACF1EB
:1002500002002944A1EB08019BB2B1FBFEFC0EFB9E
:100260001C110CFB07F743EA01439F420ED9EB1820
:100270000CF1FF3104D29F4202D9ACF102012B44B0
:10028000DB1B41EA004192E76046E3E76146F7E79E
:100290006046A3E76346B7E7834206D916B9002153
:1002A00008467BE7C6E900E0F9E7B3FA83F78FB9C0
:1002B000834201D3724508D8BEEB020460EB03030E
:1002C00001209C461EB9002168E73846FAE7C6E9D6
:1002D000004CF8E7C7F1200CBB4022FA0CF41C4399
:1002E0002EFA0CF120FA0CF3B84001434FEA1449FE
:1002F0000EFA07F5B3FBF9F81FFA84FE09FB183074
:100300000B0C08FB0EFA43EA00439A4502FA07F287
:1003100040D9E31808F1FF3004D29A4502D9A8F178
:1003200002002344A3EB0A0389B2B3FBF9F809FBEB
:10033000183308FB0EFE41EA03418E452CD96118A3
:1003400008F1FF3304D28E4502D9A8F102032144FB
:1003500043EA0040A0FB0298A1EB0E014145CE46C6
:10036000434602D306D14D4504D2B9EB020E68EBE9
:1003700004030138002EA6D0B5EB0E0261EB030199
:1003800001FA0CFC22FA07F34CEA0303F940C6E930
:10039000003198E74046C5E74346D9E730B58BB012
:1003A00004460D461222002105A809F0A5FB05AA66
:1003B0002946204608F08CFC30B9394A39480221D8
:1003C00008F0F4FF0BB030BD9DF814309DF81520F7
:1003D000344800920321344A08F0FBFF9DF81430A2
:1003E000013B0024062B58D8DFE803F0041926331C
:1003F000393F5300032000F0B5F808F05AFC022002
:1004000000F06CF99DF814308DF8103002220023B2
:1004100004A982208DF8113008F00BFCD2E70220ED
:1004200000F0A0F800F082F9ADF810408DF812400D
:10043000049800F0EFF8E5E79DF81530022BE1D9BC
:100440009DF81830BDF81620ADF810208DF8123048
:10045000EEE7002000F042F908F00EFCD2E70120A0
:1004600000F03CF908F017FCCCE704A8ADF8104008
:1004700000F0AEF9BDF810308DF80C000A2203A987
:10048000B3FBF2F3862002228DF80D3008F0D1FB89
:10049000B8E7002000F066F8B4E70720FAE700BFED
:1004A000909F0000289E0000A69F000008B5124AF9
:1004B0001248032108F07AFF00F026F800F0A0F8B7
:1004C00000F002F90E4800F03BF900F077F90D4812
:1004D00000F076F810B1072000F044F80022114631
:1004E000812008F0A6FB00F041F9002141F69A10A6
:1004F00007F04AFAF7E700BFC29F0000289E0000FD
:10050000518C00009D03000080B50B4A00AF002312
:1005100088B013706A4609495161094991614FF4E5
:1005200000719183074942F8101F07484FF4E651C4
:1005300001F058FFBD4680BD3C0E0020DA9F000050
:10054000E99F000003000001009E000007289ABFF9
:10055000024B53F820000248704700BF689E00001D
:10056000EE9F0000F8B5114D04462878A04200AF78
:1005700019D0FFF7EBFF01462046FFF7E7FF6E4675
:100580008AB06A460A4BD061C2E90531094B136251
:10059000094B42F8103F094800234FF4235101F062
:1005A00021FFB5462C70BD46F8BD00BF3C0E0020B3
:1005B000F69F00000002010304000002009E0000FC
:1005C00008B5054B1860054A05480023032108F0CB
:1005D000F6FE002008BD00BFD80C002050A000008F
:1005E000E89D000008B50B46034A0448032108F0C3
:1005F000E6FE002008BD00BF74A00000E89D0000DA
:10060000024A0348032108F0D1BE00BFA1A00000A8
:10061000109E0000F0B583B000AF03467860C0B212
:10062000C3F307210628C3F3074328BF0620062982
:1006300028BF0621062B0E4A28BF06238CB0165C65
:10064000555CD45C6A46DFF82CC0D462C2E9095319
:100650000823C2E905C0C2E9076142F8103F064815
:10066000002344F2C00101F0BDFE0C37BD46F0BDD1
:100670000FA10000BAA00000109E0000F0B583B0EA
:1006800000AF04468CB07860C4F30726C4F3074576
:10069000C0B26C46DFF828C0E362C4E90912224602
:1006A0000823C4E905C0C4E9076542F8103F0548BE
:1006B000002344F2C00101F095FE0C37BD46F0BDA9
:1006C000E0A00000109E0000024A0348032108F049
:1006D0006DBE00BF1EA10000F09D000010B50328F4
:1006E00017D8DFE800F0021012140A4A0A48032162
:1006F00008F05CFE094A0848BDE8104042F2107359
:10070000032108F05CBE064AF0E7064AEEE7064A17
:10071000ECE710BD3AA10000F09D0000B4A100007C
:1007200058A1000074A1000097A10000024A0348EC
:10073000032108F03BBE00BFD5A10000F09D0000E2
:10074000054B064A186000231370054A1370054ACA
:100750000548032108F02ABEDC0C00203E0E0020D4
:100760003D0E0020E8A10000409E000010B50E4C98
:100770000E4A23780BB9137010BD13780133DBB226
:10078000022B1370F8D9002323701370084A09480C
:10079000032108F014FE084B1B68002BECD02078D6
:1007A000BDE81040184700BF3E0E00203D0E00205F
:1007B0000BA20000409E0000DC0C0020024A03480F
:1007C000032108F0F3BD00BF41A20000E09D00003E
:1007D00013B5094C0023237010B140F6B8320280E3
:1007E000064A0093064840F6B833032108F0F1FDAD
:1007F000207802B010BD00BF3F0E002065A20000AF
:10080000E09D0000B2F5802F2DE9F04110D2042ABE
:1008100028D84549454A464840F21A2308F0ABFB20
:10082000444808F0A8FB40F21A21404808F09AFB1F
:100830000823D21ACC1D114424F0070421F007012B
:10084000091B17294FEAD1060ED83B49374A3848C9
:1008500040F2232308F08FFB364808F08CFB40F26F
:100860002321E2E70423E4E7002504603146A66083
:10087000E560204608F0C0FAB6F5004F2CBF08230B
:100880000423421D92000833D11DDB0803EBD10382
:10089000B3424FEAD10739D80130A2F110022946FC
:1008A000B8BF2A4604F1100009F026F93A46294655
:1008B000204608F09DFA2B462A462946204608F095
:1008C0006EFAA6EB070820462946012208F078FABE
:1008D0004246394608F08CFA3B462A4639462046BD
:1008E00008F05DFA3146204608F082FA43462A466F
:1008F0003146204608F053FA31462046012208F0DE
:100900005FFA3946BDE8F04108F085BA0B49074A5D
:1009100007484FF40E7308F02EFB064808F02BFB37
:100920004FF40E7181E700BF80A3000095A2000084
:10093000C9A20000A1A30000BAA30000E3A3000025
:100940002DE9F04F91B00546009302F004030193A6
:10095000C2F3C203013304938307DDF86890029267
:100960000E4640F0FC81041D30B1072909D86FF014
:100970001B0011B0BDE8F08F01F007063444C6F14A
:100980000806009B4FF000084FF0040B591ECDF8ED
:100990000C80474643464FF0FF32DA460DB10098CF
:1009A00020600498002800F3DF809B48DDF800C039
:1009B000844503D399488445C0F0D680DDF808C04B
:1009C000A4EB050E1CF0020F4FEA9E0000F0E7803A
:1009D0004FF0000CD1E07A2862D84B280FD8472876
:1009E0005ED829282DD8252859D059D820287DD03F
:1009F000A0F12309D9F1000343EB090376E04C3859
:100A00002E284DD8DFE800F0724C4C4C4C4C4C4C2E
:100A10004C4C4C4C4E4C4C4C4C4C4C4C4C5C4C4E02
:100A20004E5C5C5C724E6F4C724C184E184C4C8194
:100A30007E4E4C4C4E4C7E00002000234FF0040BA9
:100A40003CE02A384FF0010EC0B20EFA00F04FF62B
:100A5000DA7E10EA0E0F49D110F0625E30D110F04C
:100A6000010343D07046013C5C44B4FBFBF40BFB38
:100A700004F4002D5ED0AAEB050EA644B6453FF661
:100A800076AF002868D1BAF1040F43D1E14659F896
:100A9000040B20600434CC464FF0040A26E0013AEF
:100AA000002323E011F8013C6C2B30D111F8023CFB
:100AB00000206C2B0346C1D14FF0080BDA46D2E779
:100AC0000CF1070929F0070C0734FCE802AB24F00D
:100AD000070435B105982044B0423FF648AFC4E959
:100AE00000AB083400234FF0080BDA4611F8010F71
:100AF000002800F0BC80002B7FF46DAF2528F5D1D5
:100B0000013201234FF0040BEFE7184695E7002070
:100B10000346A8E7BAF1080F40F09B800CF10709E3
:100B200029F0070CFCE8029AC4E9009A08344FF057
:100B3000080ADBE780B9BAF1040F02D10CF104090D
:100B4000A8E7BAF1080F40F084800CF1070929F0FA
:100B5000070909F1080CE9E70498E1460138049017
:100B600059F8040B009019E70298800748D5A4EBC8
:100B7000050E4FEA9E004FF0010CBEF5007F1DD31D
:100B80002749284A28484FF41F7308F0F4F92748EA
:100B900008F0F1F94FF41F71224808F0E3F90F2F24
:100BA0000ED8002D46D007F1400CEC440CF8200C78
:100BB0000CF8102C03980130039020E00F2F0CD973
:100BC0001749184A184840F2812308F0D4F9184808
:100BD00008F0D1F940F28121DEE7BDB107F1400E06
:100BE000EE44C0B20EF8200C0EF8102CBCF1000F31
:100BF000E0D060F07F000EF8200C08F1010801370A
:100C0000C5F108000434CC4605906FE7BCF1000F35
:100C100010D00136F3E700BFF49B000038C300009A
:100C200082C200000EA40000C9A200003CA4000083
:100C30005DA40000019802360028E0D100980592DA
:100C4000CDE90631FFF752FADDE90631059A06448F
:100C5000D5E7444A4449454840F2C62308F08BF999
:100C60005146434808F087F940F2C62194E7631BD8
:100C7000B3F5806F0CD33C493A4A3C4840F2D2234A
:100C800008F079F93B4808F076F940F2D22183E781
:100C90001DB9A6F10804E0186BE6019A28609B08CC
:100CA0002B709DF80C30C2B1EB7085F80280B8F162
:100CB000000F05D008A80022C5F1010C97420ED103
:100CC000C5F101030DF120094FF0000A02930DF167
:100CD000300B574512D1601B4BE66B70E5E710F8FF
:100CE000013B190608D50CEB040EB64503F07F0353
:100CF0003FF63DAE04F8013B0132DFE7B8F1000FEB
:100D000003D099F90020002A17DB019BD3B11AF810
:100D10000B2004F8012B0022029B18191044B0424A
:100D20003FF625AE99F8000004F8010B00990392F4
:100D3000204608F0D3FE039A14440AF1010A09F18F
:100D40000109C6E799F8002055F822300093019B6D
:100D500045F822300098FFF7C9F9421CDCE76FF034
:100D60000D0006E60EA4000082C20000C9A2000029
:100D700077A400008CA400002DE9F04F97B000AFDD
:100D80008946D7F880B0FA623B62044658B9A84950
:100D9000A84AA94840F2993308F0EDF840F2993199
:100DA000A44808F0DFF8CBF3C00390F802A07B6101
:100DB00041B9457800780AEB800020444D4517D8AA
:100DC000A0EB0409E378FB61BAF1000F02D01BF03D
:100DD000010F16D1FB6953BBFB6A1BB13A6A494646
:100DE000204698474D4628465C37BD46BDE8F08F03
:100DF000461C3046FFF77AF90130304409F1010909
:100E0000DCE7237862687A62FA6A9900B96104EBD8
:100E10008301002A40F001814D460E4601EB0A098C
:100E20004FF000084E454CD101EB0A0610E01BF0D4
:100E3000020FD1D023789A00BA6162687A62FA6AA6
:100E400004EB8301002A77D14D4601EB0A06904658
:100E50001BF0050F0CBF02230123FB62FB6906EBAD
:100E6000430A0BF00203BB625645BCD016F8021BC6
:100E700016F8013C54F82390704B994502D3704BFF
:100E8000994536D37B69002B40D0786A08F036F854
:100E900000283BD0E9468AB06A466A4B53617B6AB8
:100EA000C2E906314FF400731384674B42F8103FD8
:100EB000664800234FF4125101F094FA023DCD46EA
:100EC000D2E716F8013BF96254F82300FFF70EF958
:100ED000D7F88430F96A01304BB1D7F8883098459B
:100EE0003EBFD7F8843023F8180008F10108054404
:100EF00098E77B6923B1786A08F000F80028C9D127
:100F00001BF0010F05D1FB6AED1AADE7BB6A002BA0
:100F1000AAD04846FFF7EAF8D7F8843053B1D7F89B
:100F2000883098453FBFD7F88420431C22F81830FA
:100F300008F10108054497E7BAF1000F73D01BF0E0
:100F4000040673D0D046002607F1480052463B61A4
:100F5000B96208F0C3FDB96A3B6901EB0A02BA62E3
:100F6000FA69F9695200FA60BA6A02EB41023A6121
:100F70000BF00202BA60BA6A39698A4268D16278B3
:100F80007A621BF0020F32440CBF4FEA5801002175
:100F90001BF0010FD2B240F0E4801BF0040F14BF2D
:100FA000404600207B616270A070E1703A6AB969C6
:100FB000FB6A20469847051EFFF615AF7B69237034
:100FC0007B6A6370FB69E37041463A6AFB6A84F8A6
:100FD00002A007F148009847B0F10008C0F2F58080
:100FE000BB693A6AA9EB0A01C91AFB68C91AD7E9B1
:100FF0000A0398470028C0F2EA80A84408EB0005DD
:101000004FF0000B07F1380AB345C0F0AC80002167
:101010003A6AFB6A08469847E5E656464FF00008EC
:1010200007F1380092E75646D04696E7B04694E777
:10103000A3A400000EA40000C9A20000F49B0000BD
:1010400038C30000BEA4000004000001F89D0000A9
:10105000BA6A12F8021BBA6212F8015C5D4A54F8CF
:101060002500904202D35C4A904218D37A693AB183
:10107000786A7B6007F042FF7B6800287FF47BAFD3
:10108000BA68002A4CD00F2E40D95449544A5548CA
:1010900040F24D4307F06FFF40F24D4180E67A6920
:1010A0003AB1786A7B6007F029FF7B6800287FF4FB
:1010B00062AF1BF0010F0BD00F2E27D94749484ACA
:1010C000484840F2434307F056FF40F2434167E689
:1010D0001BF0040F3FF44FAFB8F10F0F09D942498D
:1010E0003F4A404840F2464307F045FF40F2464140
:1010F00056E608F1280207F1300008F1010102EB81
:10110000000808F8105C5FFA81F834E706F128025D
:1011100007F13000711C161806F8205CCEB22AE7E1
:10112000B8F10F0F09D930492D4A2E484FF48A6380
:1011300007F021FF4FF48A6132E608F1280207F137
:10114000300C08F10100944407F1580252FA80F083
:1011500008F102080CF8101C5FFA88F800F8105C1F
:1011600009E700201EE71BF80A3087F8373054F8EB
:101170002390D7F884302BB3D7F888309B4521D201
:10118000D7F8843033F81B803A6AFB6A012107F1F3
:101190003700984700281ADB0544B8F1000F06D144
:1011A0004846FEF7A3FF00F101081FFA88F83A6AE3
:1011B000FB6A414648469847002808DB05440BF186
:1011C000010B21E74FF00008DEE745460BE6054638
:1011D00009E600BFF49B000038C3000061A50000D1
:1011E0000EA40000C9A2000080A5000080B505463D
:1011F0000E461746984606F063FC034608F0F0FCDE
:10120000DFF81890044649F8003042463046394627
:10121000A84754F8090002F03DF800BF080000009C
:1012200038B50D4604462022002108F065FCEB6825
:10123000E361AB68A3612B6823626B686362002281
:10124000A2622A6923B1591E194208BF42F0010265
:1012500022610122002104F12C0008F0A5FB48B115
:1012600005490648064A2F2307F085FE04482F212A
:1012700007F078FE38BD00BFD7A50000C9A2000066
:10128000B1A500002DE9F04F89B0CDE90123436AF3
:1012900000278B420446884605970797BA4654D3E1
:1012A00000F11406EFF31185202383F31288BFF3B6
:1012B0006F8F3046A94606F009FE58B94D4A4E498F
:1012C0004E48882307F057FE31464D4807F053FE3D
:1012D000882163E0304606F01DFE079A2AB13946A0
:1012E000204607F030FF0023079306A9204607F0A9
:1012F0004FFE06994145834630D32268236A13F88E
:10130000221021F0030103F8221003EB820A216866
:101310004246204607F060FEE3682060984218D0FD
:101320004FF0000B304606F0DFFD50B389F3118813
:10133000BFF36F8F059929B1A2690AB12046904782
:1013400000230593BBF1000FACD1504609B0BDE8B6
:10135000F08F236943F008032361E1E718B12046C9
:1013600007F054FEDEE7DDE90132134339D0039183
:1013700008F026FB0399A0BB9DBB304606F0B4FDE8
:1013800078B91C4A1F491D484FF49A7307F0F3FDC2
:1013900031461D4807F0EFFD4FF49A71154807F0EC
:1013A000E1FD85F31188BFF36F8FDDE9012304F1BF
:1013B0002C0005F0FDFB8346EFF31189202383F316
:1013C0001288BFF36F8F304606F080FD00283FF48F
:1013D00075AF3046BBFA8BFB06F09CFD4FEA5B1BFA
:1013E000A0E707AB05AA2046276807F02CFE834636
:1013F00098E700BFE0A500000DA60000C9A200000C
:1014000022A6000038A600004FA600002DE9F041FA
:101410000446C36908460E46984704F1140507467A
:10142000EFF31188202383F31288BFF36F8F2846D0
:1014300006F04CFD68B91B4A1B491C48882307F07D
:101440009AFD29461A4807F096FD8821154807F0AD
:1014500089FD284606F05EFD337843F001033370C2
:1014600061683A46204607F0B7FD6060204607F005
:1014700085FE284606F038FD68B90A4A0D490B4832
:101480004FF49A7307F077FD29460B4807F073FD78
:101490004FF49A71DAE788F31188BFF36F8FBDE8D4
:1014A000F08100BFE0A500000DA60000C9A2000069
:1014B00022A6000038A600004FA600002DE9F84340
:1014C000044600F11407EFF31188202383F31288F8
:1014D000BFF36F8F384606F0F9FC054668B9354A08
:1014E00035493648882307F046FD3946344807F029
:1014F00042FD88212F4807F035FD384606F00AFDE9
:101500002369A26813F0080F02D163689A4200D9D8
:10151000636A9B1A002B3FD0216A11F8223013F026
:10152000030001EB82093AD0022803D151F822606E
:10153000B60805D1D8071FD4E36948469847064640
:10154000A1683246204607F047FD3146A06020469C
:1015500007F050FD384606F0C7FC10BB154A194984
:1015600016484FF49A7307F006FD3946164807F0FF
:1015700002FD4FF49A71BDE743F0020301F82230F7
:101580004846E369A568984729460246204607F081
:1015900023FD0025A060DDE71D46A946DAE70546E4
:1015A000FBE788F31188BFF36F8F002D8BD148467E
:1015B000BDE8F883E0A500000DA60000C9A2000068
:1015C00022A6000038A600004FA600002DE9F04139
:1015D0000446C36908460D46984704F114060746B9
:1015E000EFF31188202383F31288BFF36F8F304607
:1015F00006F06CFC68B9284A28492948882307F076
:10160000BAFC3146274807F0B6FC8821224807F08B
:10161000A9FC304606F07EFC2B786FF300032B709C
:1016200023699B0705D5E268236A03EB82039D4289
:1016300022D12B786FF341032B70D4E90231994208
:1016400004D13A46204607F0C7FCA0603946204640
:1016500007F0D0FC304606F047FC90B90E4A12491C
:101660000F484FF49A7307F086FC31460F4807F095
:1016700082FC4FF49A71C9E72B6867F39F032B60D4
:10168000E8E788F31188BFF36F8F04F12C00BDE801
:10169000F04105F011BA00BFE0A500000DA6000062
:1016A000C9A2000022A6000038A600004FA6000034
:1016B00070B5044600F11405EFF31186202383F37F
:1016C0001288BFF36F8F284606F000FC68B91B4AEA
:1016D0001B491C48882307F04EFC29461A4807F08E
:1016E0004AFC8821154807F03DFC284606F012FC0C
:1016F0002369A06813F0080F02D16368984213D9D8
:10170000646A241A284606F0EFFB78B90B4A0F49A1
:101710000C484FF49A7307F02EFC29460C4807F04A
:101720002AFC4FF49A71DDE71C1AEBE786F3118867
:10173000BFF36F8F201E18BF012070BDE0A5000011
:101740000DA60000C9A2000022A6000038A60000D5
:101750004FA600002DE9F84F04460846A38B190751
:10176000154612D4022803F0070165D1204607F080
:1017700012FD88B10138042800F23781DFE810F04B
:101780005C0035018200D400040101280CBF43F045
:10179000100143F02001A1831434204606F0A4FB7D
:1017A000002840F09D819A499A4A9B484FF49A73C9
:1017B00007F0E1FB2146B1E003F00702501F0128CA
:1017C0001ED80020062A2768C4E9000014D13A4632
:1017D00003E0E08B0130E0831268002AF9D123F0A6
:1017E000070343F00202A283204607F0D4FC90B323
:1017F00042F02002A2832EE023F007039AB2F2E720
:10180000042A33D123F007039AB2A283204607F0BB
:10181000C2FC10B142F02002A283A38B03F007099F
:10182000894540F0EC80A18BCA0640F1508121F03F
:101830001003A38301F00701D4F81880A38BB8F13B
:10184000000FB9DA0022276823F00703C4E9002259
:1018500043F00103A383A38B03F00709894540F0FC
:10186000CF80002FDFD00026B24644E06B496C4A9F
:10187000694840F21B1307F07EFB40F21B116848D9
:1018800007F070FB49B16749654A63484FF4AB7391
:1018900007F071FB4FF4AB71F1E723684BB9624974
:1018A0005F4A5D4840F2571307F065FB40F257115D
:1018B000E5E723691E684EB95C49594A56484FF41A
:1018C000AD7307F058FB4FF4AD71D8E7A38B23F04D
:1018D000070343F006039BB2A3830F4688464FF0ED
:1018E0000609A268002A40F08D80002F40F08D800C
:1018F000002E98D0BA4643F0080304F1140BA383DA
:10190000584606F0F1FA002840F09A804049414AD2
:1019100041484FF49A7307F02EFB5946444807F0AC
:101920002AFB4FF49A71ADE0022909D041493C4AA3
:10193000394840F25D1307F01EFB40F25D119EE74F
:10194000E78B4FB13C49364A33484FF4AF7307F049
:1019500012FB4FF4AF7192E723695E684EB93349C9
:101960002F4A2D4840F2611307F005FB40F2611148
:1019700085E7A38B23F0070343F004039BB2A38303
:10198000B8464FF00409ACE7012909D02B49244A95
:1019900021484FF4B27307F0EEFA4FF4B2716EE7DC
:1019A00023684BB920491E4A1B4840F2651307F0D3
:1019B000E2FA40F2651162E723699E684EB91B495D
:1019C000174A15484FF4B47307F0D5FA4FF4B471C1
:1019D00055E7A38B23F0070343F005039BB20027D1
:1019E000A383B8464FF005097BE70C490C4A0A4827
:1019F00040F26B1307F0BFFA40F26B113FE700278C
:101A000000266EE74FF0010A75E7924673E700BFC4
:101A100038A60000E0A50000C9A2000082C20000B4
:101A200064A6000089A6000095A60000B8A60000E4
:101A30004FA60000CFA60000E5A60000F4A6000017
:101A400085F31188BFF36F8FBAF1000F1CD177BBFC
:101A500016B126492046B047EFF31185202383F3C2
:101A60001288BFF36F8F584606F030FA38BB204A11
:101A700020492148882307F07EFA59461F4807F07D
:101A80007AFA88211A48FBE6A1680029DFD00D68A0
:101A90000029DCD0D1F804A043464A462046D0476E
:101AA0001DB12B6829461D46F2E72B46FAE7394659
:101AB00043464A4620463F6807F099FBC7E7584629
:101AC00006F028FAA38B23F00803A383ABE68B066A
:101AD0007FF562AE21F02003A38301F0070145E604
:101AE00085F31188BFF36F8FBDE8F88F011B0000ED
:101AF000E0A500000DA60000C9A2000022A600007B
:101B0000F8B504460D4600F11406EFF311872023C3
:101B100083F31288BFF36F8F304606F0D7F968B9A8
:101B20000C4A0D490D48882307F025FA0C48314628
:101B300007F021FA0748882107F014FA304606F02A
:101B4000E9F9A5613A4620460121BDE8F840FFF7D2
:101B500001BE00BFE0A500000DA60000C9A2000064
:101B600022A600002DE9F04704460F4607F02FFBA0
:101B7000051E68DB04F11409EFF3118A202383F3B7
:101B80001288BFF36F8F484606F0A0F9804660B90F
:101B9000384A39493948882307F0EDF94946384829
:101BA00007F0E9F98821334842E0484606F0B2F9E7
:101BB000E38BA68B4FF6FF72934206F0070645D0E3
:101BC000022E15D10133E3833546484606F08CF9E1
:101BD000002841D1274A2B4928484FF49A7307F02F
:101BE000CAF94946284807F0C6F94FF49A71DAE76E
:101BF000062E13D8DFE806F0092D12120904090099
:101C00006FF085054FF00008DFE700233B60636855
:101C100083B9C4E9007786B13546F3E71B49174815
:101C20001B4A4FF4E47307F0A6F919484FF4E47126
:101C300007F098F91F606760EDE7524602212046E1
:101C4000FFF788FD35462846BDE8F0876FF00A05A6
:101C5000D8E76FF00405D5E78AF31188BFF36F8FDB
:101C6000B8F1000FEFD0002332463946204607F086
:101C7000BEFAE8E7E0A500000DA60000C9A200003A
:101C800022A6000038A600004FA60000F4A600001F
:101C900064A6000008B54268816002F00302032ACE
:101CA000034602D02AB1002000E0006800225A60FA
:101CB00008BD05490548064A452307F05CF9044874
:101CC000452107F04FF900BF82C20000C9A2000001
:101CD0000AA7000030B51049104889B0002207F06B
:101CE000CBFE0F4D0F4900220023CDE9062300242F
:101CF0000E23CDE90334CDE901440B4B00944FF49E
:101D00000062284605F032F80849284607F05EFED2
:101D1000204609B030BD00BF791E0000E00A002057
:101D200058060020580E0020CD21000030A70000EA
:101D30002DE9F047DFF85880044607464FF00109C7
:101D400014B93846BDE8F08794FAA4F5B5FA85F5DC
:101D500009FA05F32E0108EB05156FEA030A24EAD8
:101D600003042B7B002BEBD058F806301B694BB9D2
:101D70004644042273682846196807EA0A0707F0F0
:101D8000A5FADDE7284698470028D9D1F0E700BF3B
:101D9000509E00002DE9F047DFF8BC902F4CA9EBD6
:101DA00004038F2B80460F460BD92D492D4A2E4810
:101DB0004FF4A67307F0DFF84FF4A671294807F037
:101DC000D1F82A4807F062FA064678B3002528467B
:101DD000BDE8F087237B83B12368DB680BB1204625
:101DE0009847636883F806A023681B69B3B96368E2
:101DF00004221968204607F069FA013610344C4570
:101E000018D91B49174A18484FF4AC7307F0B3F8B8
:101E1000184807F0B0F84FF4AC71CFE72046984768
:101E20000028E4D00AFA06F31D43E6E705464FF022
:101E3000010AE4E7CED3B8F1000FC8D0002DC5D019
:101E40002846FFF775FF0546002FF7D000214FF415
:101E5000A47005F099FDF1E7609E0000509E00001F
:101E600065A7000038A70000C9A20000F40C0020FC
:101E700095A70000B6A70000014804F01DBE00BFF2
:101E800048060020014B53F8200070479C9E00003C
:101E900008B5034608462BB1044A136000F0BEFDA6
:101EA000002008BD6FF01500FBE700BF60050020B3
:101EB00010B5044C237813B9034804F0FDFD012349
:101EC000237010BD400E00204806002010B50446C7
:101ED0000B4807F0DBF95CB1BFF35B8F094B53E8AC
:101EE000001F013943E80012002AF8D1BFF35B8FCD
:101EF000054807F0CDFD0548BDE8104004F0DCBD05
:101F0000EC0C0020F00C0020E00A00204806002025
:101F10000020064BBFF35B8F014653E8000F43E8F8
:101F20000012002AF9D1BFF35B8F7047EC0C002040
:101F300070B5FFF7EDFF104C104E0546B44219D9AD
:101F40000F49104A10484FF4037307F014F80F4874
:101F500007F011F80B484FF4037107F003F86368BA
:101F60005B792BB123685B6813B1294620469847FB
:101F70001034E3E7F3D370BD509E0000609E000074
:101F800095A7000038A70000C9A20000B6A700006E
:101F900010B5044C04492046FFF742F9034B1C607E
:101FA00010BD00BFF0050020889E0000E00C00205E
:101FB000154A1648002310B51370154A1360154AC8
:101FC0004FF400411360FFF763FFFFF7E1FF124B8F
:101FD000124918468B4215D91149124A124840F24B
:101FE000271306F0C8FF114806F0C5FF0D4840F260
:101FF000271106F0B7FF1A1A5C681211013222711C
:102000001033E7E7F7D310BD410E0020899200009E
:10201000EC0C0020F00C0020509E0000609E0000A0
:1020200095A7000038A70000C9A20000B6A70000CD
:102030000146002201480023FFF724B9F0050020E3
:102040000148FFF73BBA00BFF0050020024B0146F4
:102050001868FFF7BBBA00BFE00C00200148FFF78B
:1020600027BB00BFF005002070B5314B1878002861
:102070005DD0FFF7E5FF0546002844D12D4B2E4CDF
:102080001B68002B19DD07F0F5FC4FF47A72A0FBFA
:10209000020302FB0131C30BD4E9002043EA4143B0
:1020A0009B1A4FEAD13140F2E93261EB00019342D1
:1020B00071F1000101D3FFF73BFFD4E9003213F5C2
:1020C0007A7342F10002C4E90032BDE87040FFF7C4
:1020D000C5BF63685B7923B1236829461B68204626
:1020E00098471034B44211D91449154A15484FF491
:1020F000007306F040FF144806F03DFF10484FF40F
:10210000007106F02FFF114C114EEBE7E1D328468A
:10211000FFF79CFFBFF35B8F0E4B53E8001F0139A5
:1021200043E80012002AF8D1BFF35B8FA6E770BD29
:10213000400E0020EC0C0020D80A002095A70000DB
:1021400038A70000C9A20000B6A70000509E0000FA
:10215000609E0000F00C002070B5154D297829BB59
:102160000120FFF717FE134C134EB44217D9134941
:10217000134A144840F2C51306F0FDFE124806F05B
:10218000FAFE0F4840F2C51106F0ECFE63685B7979
:102190001BB1236820469B6898471034E5E7F5D3C8
:1021A000FFF762FF0028FBD101232B7070BD00BF39
:1021B000410E0020509E0000609E000095A7000088
:1021C00038A70000C9A20000B6A700002DE9F0471B
:1021D000304B314FFB1A1B090BD13049304A314883
:1021E00040F2A93306F0C7FE40F2A9312C4806F0B0
:1021F000B9FE00210846FFF7CDFD044650B340F27A
:1022000067684FF0000907F0EBFC274B274A1B5883
:10221000136033B1264B1B68092B02DD254804F0FF
:102220004BFCDFF890A0002544B12046FFF780FD6D
:10223000044618B94FF0FF384FF0FF39FFF714FF8D
:10224000064628B95DB942464B46504604F0B0FCFC
:102250003546E9E74FF0FF384FF0FF39D3E70D4D32
:1022600008E0F0D22B689B691BB10022114628467A
:1022700098471035BD42F4D90F49094A094840F240
:102280009D3306F078FE0D4806F075FE40F29D3154
:10229000ACE700BF509E0000609E0000D5A7000084
:1022A00038A70000C9A2000008000000E80C0020C8
:1022B000F00C00204806002095A70000B6A70000FB
:1022C00013B52C4806F0E2FF2B4B1B78002B35D0C2
:1022D000EFF31184202383F31288BFF36F8F274815
:1022E00005F0F4FD68B9264A26492748882306F0F8
:1022F00042FE2249254806F03EFE8821204806F08D
:1023000031FE1E4805F006FEFFF7AEFE1B4805F045
:10231000EBFD68B91A4A1E491B484FF49A7306F040
:102320002AFE16491B4806F026FE4FF49A71E5E78F
:1023300084F31188BFF36F8F02B010BD164B1B687A
:10234000002BF9D050B900220023CDE90023134817
:102350004FF40042002306F017F9EDE70928EBD10E
:102360000E4807F095FB0E4802B0BDE8104004F09F
:10237000A3BB00BFF00C0020410E0020E40C0020A5
:10238000E0A500000DA60000C9A2000022A60000E2
:1023900038A600004FA60000E80C0020E00A00204C
:1023A0004806002010B5064B1B6804469847214696
:1023B000A0600448FFF72AF8BDE81040FFF780BF8F
:1023C00060050020F0050020044A054B9B1AB1EB84
:1023D000D30F34BF52F8310000207047D89D000061
:1023E000509E00002DE9F04F8FB004AFC1F34A2892
:1023F000B8600D4691467B600C0DB8F1000F68D0B7
:10240000002607F114034FF0040B4FF00A0AC7F837
:102410000C80C7E907667E620193CDF808B0CDF85D
:1024200000A007F11C03F96832464846FEF7A4FCF9
:10243000B0F5006F03461CD36C468AB0D9F804107F
:1024400004AB2C48C3E9050140F2FF71D9611A467B
:102450004FF400711984284B42F8103F2748334647
:102460004FF41251FFF7BEFFA5462C37BD46BDE81D
:10247000F08FC0F30A0804F11700184420F0070099
:1024800080083B60FFF7D4FD68F35325044640B352
:102490003B681B4AC7E9083600F1100107F1140335
:1024A000F961CDE900A3CDF808B0F96807F11C0384
:1024B0004846FEF761FC002813DA12491248134A15
:1024C0004FF4A37306F057FD10484FF4A37106F0C4
:1024D00049FD04F1170020F007008008FFF7A8FD70
:1024E000044668F353257B68B9682A46204606F0FF
:1024F0000DFFBAE7FEA7000004000001189E0000CF
:10250000DF9200006AA80000C9A200003DA80000F8
:102510002DE9F04F87B0DDE91279DDE9106A044654
:1025200003919346984627B3CDF800903B46524618
:1025300010210020CDF81490FEF702FA051E0BDAE8
:102540002649274A274840F2651306F014FD40F259
:102550006511234806F006FDB5F5006F0ADB224A37
:10256000224840F2FF73022107B0BDE8F04F06F0A9
:1025700026BF3D4606F11700284420F0070004F06E
:1025800007048008FFF754FD0BF0070BE40044EA52
:102590008B1444EA452444EA06540646A0B19FB190
:1025A000CDF800903B46524629461030FEF7C8F958
:1025B000002809DA09490A4A0A484FF4C47306F0A8
:1025C000DAFC4FF4C471C4E703994346224630460F
:1025D00007B0BDE8F04F06F099BE00BF69A8000043
:1025E0003DA80000C9A2000073A80000189E0000CA
:1025F000406820B1034BC01A40F3CF0070474FF042
:10260000FF307047D89D00000EB403B503AB014600
:1026100053F8042B0448019301F006F902B05DF869
:1026200004EB03B0704700BF49260000CA0605D47A
:102630008B064CBF02490349FFF7E6BF704700BF56
:102640006EBC0000ABA8000038B54B681A68CB68B8
:102650009A4205460C4602D1084606F0D4FE63684D
:10266000BFF35B8F53E8002F511C43E80010002894
:10267000F8D1BFF35B8FA3689D5463681A68E36861
:102680009A4209D905490648064A722306F073FCA6
:102690000448722106F066FC002038BDDDA8000069
:1026A000C9A20000AEA800002DE9F04F89B09B46FA
:1026B000149B06939DF84CA0159B0593169B179EA3
:1026C000049304460D469046BAF1000F00F0AD8029
:1026D000BAF1040F0BD9A349A34AA44840F24623F8
:1026E00006F049FC40F246219F4806F03BFC06F408
:1026F0008073079306F0E8FD06F002090246002801
:102700003FD09B492046FFF77FFF0746B9F1000FF6
:1027100008D016F0440F36D196492A462046FFF7D6
:1027200073FF074406F0010353B1934B934953F8E9
:102730002A20934B2046002A08BF1A46FFF764FF61
:1027400006F48073002B4AD006F00803002B64D1F6
:10275000B8F1000F67D08B4942462046FFF754FF7F
:102760000546069B3D44002B6ED1049B002B40F098
:102770008380F30700F1F08031462046FFF756FFD3
:10278000E4E00746C2E7804B18680028C9D07F4BB9
:102790004FF47A791B68B5FBF3F54FF46163B5FB31
:1027A000F0F100FB115509FB05F54FF03C0CB1FBB6
:1027B000F3F203FB1211B5FBF0FEB1FBFCF300FBDF
:1027C0001E550CFB131109FB05F50091B5FBF0F547
:1027D0006F49CDE901E52046FFF716FFA1E706F0B6
:1027E0000803EBB16B4B6C4953F82A202046FFF7E6
:1027F0000BFF0546B8F1000F05D06249424620465E
:10280000FFF702FF0544BBF1000FAAD063495A4607
:102810002046FFF7F9FE0544A3E74FF0000BE1E780
:1028200006F00805E6E745469BE7BBF1010F069B6E
:1028300006D1DBB9049B002B00F0888000251BE04B
:10284000002BF7D0564812E05648069B56492246C0
:1028500006F023FB00280CDA5449434A43484FF45E
:10286000287306F088FB4FF428713DE74D48554624
:10287000EBE7049B002B65D0DFF83481DFF834915F
:10288000049F3146102F204628BF1027FFF7CEFEA9
:102890004FF0000B5D4542DC059B49461A78204607
:1028A000FFF7B2FE4FF0010B1BF0070F03D14146BB
:1028B0002046FFF7A9FE5F4538D9059B494613F826
:1028C0000B202046FFF7A0FE0BF1010BBBF1100F10
:1028D000EAD1394920464FF0000BFFF795FE5A46E2
:1028E000059B9A5CA2F120015F2928BF2E22334963
:1028F0002046FFF789FE0BF1010BBBF1100F1AD038
:102900001BF0070F03D141462046FFF77DFE5F45D0
:102910005A46E5D841462046FFF776FEEBE74146AA
:102920002046FFF771FE0BF1010BB3E72449204667
:10293000FFF76AFEC8E7059B3B440593049BDB1B3E
:1029400004939DD1BAF1000F7FF413AF204609B074
:10295000BDE8F04F06F057BD094A08492046FFF789
:1029600053FE09E712A90000AEA80000C9A20000AA
:102970001DA9000021A90000AC9E00004EB200007D
:102980000DA9000046A90000FC0C0020F80C002056
:102990002AA90000C09E00004AA9000050A900001A
:1029A00021940000492600002938000055A90000A4
:1029B00066A900005EA9000068A900006AA90000DD
:1029C00064A9000073B542F20F738B4228BF0B4617
:1029D00005680F4A04460521684605F0A1FE6368B4
:1029E0000C495B6806460B22284606F0FEFC63682D
:1029F0003246694628465B6806F0F7FC636806497C
:102A00005B681B22284606F0F0FC02B070BD00BFD8
:102A10007EB2000089A900006DA90000074A0021CC
:102A20000123904206D8064A01B901231360054BE1
:102A30001860704740085B000121F2E740420F0038
:102A4000F80C0020FC0C0020014B01221A7070478A
:102A5000420E0020014B002019607047140D002029
:102A60000148FFF7AFBF00BFF09E000010B5064B56
:102A700018680C46FFF706FA21460346BDE81040E9
:102A800002480F22184700BF140D0020F09E0000DE
:102A9000F8B5094D094B0A4ED5E9004701221A70D5
:102AA0000CB92C60F8BD214630463A4600F01EF8BD
:102AB000241A0644F4E700BF080D0020430E00204E
:102AC000440E002010B9074B18707047064B1B7856
:102AD0001BB141F2883006F05BBFA420002104F056
:102AE00053BF00BF420E0020430E00202DE9F047E7
:102AF000DFF878901E4F80460E46042499F8005067
:102B0000A5B906F038FF324682464146284603F012
:102B10003BFD0546504606F036FFE5B101233B700C
:102B200099F8003073B93046BDE8F0873246414627
:102B3000002003F029FD0546EFE72046FFF7C2FF1E
:102B4000651E2C46002003F063FD0028EBD03B7887
:102B5000002BF2D1E7E73B78002BE4D0013C204684
:102B6000FFF7B0FF3B78002BC8D1DCE7430E002015
:102B7000420E0020014B036000207047009F0000C0
:102B800008B5044806F0E1F9BDE80840024806F03F
:102B9000DCB900BFC5A90000FAA9000008B50348C8
:102BA000034A0021121A06F07EFC08BD58060020D8
:102BB000580E00200748084A084908B5121A06F0BE
:102BC00074FC0748074A0849BDE80840121A06F095
:102BD0006CBC00BFC00400205806002040C30000A9
:102BE000B8040020C004002038C300002DE9F047DD
:102BF000064600AF0C46002936D0E9468AB0D1E936
:102C00000012A3686D462148A8464FF0050AC5E9A1
:102C10000501C5E9072348F810AF1D4842460023C7
:102C20004FF42151FFF7DEFBCD46D4E9031263696F
:102C3000AD461848C5F810A0C5E90501C5E9072348
:102C40001348002342464FF42151FFF7CBFBCD46FA
:102C5000E369114A0E48012106F0B1FBA3690F4A4E
:102C60000B48012106F0ABFB012E07D1EFF30583E2
:102C70000B4A0748103B314606F0A1FB214630467F
:102C800003F0F6FCBD46BDE8F08700BF28AA0000AF
:102C9000389E000057AA000086AA000095AA0000EE
:102CA000C3AA000030BFFFF7FDBF00BF2DE9F04110
:102CB0000B4EDFF8308006EB0807CC1B054632468A
:102CC0000949204606F00AFFA01942460021083CA7
:102CD00006F012FF2C6707F10800BDE8F08100BF85
:102CE0000000000004000000609E0000054B5A69CF
:102CF0009B689A421FBF044A536843F08053536055
:102D0000704700BF000E002000ED00E070B52D4CB4
:102D100006460D462C482D4906F0D4FBA36ADB0677
:102D200045D529482A4906F0CDFB1120A36A1C0786
:102D300004D52548274906F0C5FB1220214CA36A7B
:102D4000990712D52449204806F0BCFB636BA26AA0
:102D5000120609D5214A1C48012106F030FB1EB19C
:102D6000A36A23F08003A3621320164CA36ADE0734
:102D700004D515481A4906F0A5FB1420A36AD90604
:102D800002D4A36A9A0714D50E4B9B6ADB0610D5B2
:102D90001449154A154840F22D1306F0ECF8144872
:102DA00006F0E9F8104840F22D1106F0DBF810208B
:102DB000BCE7044A936A43F0FF03936200232B703D
:102DC00070BD00BF00ED00E0389E0000D6AA0000F4
:102DD000ECAA00001FAB000032AB00004AAB0000C1
:102DE00060AB0000C5AB00007FAB0000C9A20000D3
:102DF0000FAC000010B5204C2049214806F062FBC2
:102E0000A36A990136D51E481E4906F05BFB1E20B9
:102E1000A36ADA0104D51A481B4906F053FB1F20A8
:102E2000154CA36A1B0304D51548184906F04AFB44
:102E30002120A36A590304D51148154906F042FB25
:102E400022200D4CA36A9A0304D50D48114906F0BF
:102E500039FB2320A36ADB0304D509480E4906F099
:102E600031FB2420044A936A6FEA03436FEA134359
:102E7000936210BD1D20CBE700ED00E073AC0000B5
:102E8000389E00008BAC00009EAC0000B8AC000087
:102E9000D6AC0000FBAC000015AD000070B5244CB2
:102EA00006460D462348244906F00CFBA36AD904C4
:102EB0003CD52048214906F005FB1720A36A1A05D6
:102EC00004D51C481E4906F0FDFA1820184CA36AC8
:102ED0009B0512D51B49174806F0F4FAA36BA26AAA
:102EE000110409D5184A1348012106F068FA1EB1E9
:102EF000A36A23F40043A36219200D4CA36A5A0568
:102F000004D50C48114906F0DDFA1A20A36ADB0546
:102F100004D508480E4906F0D5FA1B20044A936AE6
:102F200043F47F43936200232B7070BD1620C5E7E6
:102F300000ED00E0389E000040AD000056AD0000FE
:102F40001FAB000067AD000080AD000095AD000034
:102F5000B0AD0000F0B5794B8BB00446586800AFB7
:102F6000C0F30803002686F31188BFF36F8F02F0C9
:102F70007F45B5F17F4F07D102F00C05082D12D126
:102F80006F49704806F09EFA6F49704A704840F2E7
:102F9000144305F0F0FF6F4805F0EDFF40F21441D7
:102FA0006A4805F0DFFF15074CBF0C460126002CD0
:102FB000EAD00022FA71DA1E092A00F29D80DFE8C9
:102FC00002F0059396769B9B9B9B9B9962495D487B
:102FD0005A4D06F077FA0023FB71EB6A9A0705D584
:102FE0005E49584806F06EFA002329E0EB6A002B90
:102FF00001DA5B49F5E7EB6A5B0068D5594951484E
:1030000006F060FA6B69A26943F480736B61BFF3E9
:103010004F8FBFF36F8F6B6932F8022C23F48073EC
:103020006B61BFF34F8FBFF36F8F4DF602739A4200
:1030300027D123684C4A4348012106F0C0F9236890
:10304000FA79DAB907F1080504F1200C2068616803
:103050002A4603C2083464451546F7D17A6A002E21
:1030600066D0C2F3080121B96FEA52226FEA422208
:103070007A6207F108011846FFF7B8FD2C37BD4604
:10308000F0BDAB6ADBB22BB1F91D0120FFF73EFEAC
:103090000346D5E7AB6A13F47F4F04D0F91D012036
:1030A000FFF7FCFEF4E7AB6AB3F5803F02D3FFF70E
:1030B000A1FEEDE72D49254A254840F2ED2305F014
:1030C0005AFF2B4805F057FF40F2ED2168E72749EA
:1030D0001E4A1F484FF43C7305F04DFF254805F08C
:1030E0004AFF4FF43C715BE7F91D0020CEE7F91D64
:1030F0000020D5E7204974E7204A214910F4F87FE1
:103100006D468AB018BF11466A46103BD3611D4810
:103110004FF4007313841C4BC2E9050142F8103FC1
:10312000084800234FF41151FFF75CF9AD465BE707
:1031300022F4FF7222F001029AE700BF00ED00E0E6
:10314000F6AD0000389E000021AE00007FAB00000D
:10315000C9A2000034AE000072AE000089AE0000CB
:10316000AAAE0000B8AE0000D7AE000082C20000D8
:10317000F3AE000017AF000047AF0000DDAD000068
:10318000C8AD00006BAF000004000001044B5A6999
:1031900042F010025A615A6922F008025A617047DF
:1031A00000ED00E0EFF30880EFF3098101B572460E
:1031B000FFF7D0FE01BD00BF002080F31488BFF3ED
:1031C0006F8F0F4880F3088801F0E6FC00200D495E
:1031D0000860BFF34F8F00F02BF8202080F3118898
:1031E00009484FF40061401880F30988EFF3148018
:1031F0000221084380F31488BFF36F8F06F06AF949
:103200005827002094ED00E0581600200749D1F817
:1032100090200023C2F307221846934200DB704738
:10322000C1F89830C1F8A0000133F6E700ED00E0E6
:1032300008B572B6002383F31388FFF7E7FF144B3A
:103240004FF0FF32C3F88020C3F88420C3F88820F1
:10325000C3F88C20C3F89020C3F89420C3F89820BA
:10326000C3F89C20C3F88021C3F88421C3F88821C7
:10327000C3F88C21C3F89021C3F89421C3F8982196
:10328000C3F89C2162B6BFF34F8FBFF36F8F08BDA9
:1032900000E100E0084B9B6883420BD1EFF305830C
:1032A00043B1064B5A6842F080525A605A6A22F47F
:1032B00000425A6204F00ABC000E002000ED00E05B
:1032C00011498A684FF030001044EFF3098C80E810
:1032D000F01F202080F31288BFF36F8F0B4F4FF049
:1032E00000664A698A603E60106F094C2060506F2A
:1032F0000023536780F3118802F1300090E8F01F3B
:103300008CF3098870470000000E002004ED00E0F7
:10331000180D00201EF0040F0CBFEFF30880EFF330
:103320000980816911F8021C0229FFD001B572469B
:1033300006F0BDF801BD00BF40B2002807DB044A1B
:103340004109012300F01F00834042F821307047FB
:1033500000E100E0054B420900F01F0053F8222075
:10336000012303FA00F01040704700BF00E100E0C5
:1033700038B54B1C072B04460D460FD9114A12498C
:1033800012486B2305F0F7FD114829460723224612
:1033900005F0F1FD0B486B2105F0E4FD40B200287B
:1033A000ACBF00F160400B4A4FEA4313B8BF00F0D6
:1033B0000F00DBB2AABF00F56140135480F8003360
:1033C00038BD00BF7EAF0000C9AF0000C9A2000039
:1033D000E4AF000014ED00E0044B054A23F07F0346
:1033E0009360BFF34F8FBFF36F8F704700000000F3
:1033F00000ED00E042F8203C009B42F81C3C0A49EA
:10340000019B42F8183C029B42F8143C21F0010158
:103410004FF0807342F8043C42F8081C0023203A25
:1034200002654367704700BFED11000000B50B4B0C
:1034300098600B4B1546026F1A600E462C4686F3B9
:1034400009880020034B98472046002100220023D2
:10345000014C2047F1940000ED110000000E002007
:10346000180D0020014B10221A61704700ED00E09A
:10347000044800232021C21801331E2B82F80013B8
:10348000F9D1704700E100E008B5EFF30583064A83
:10349000103B02EBC30152F8330049688847BDE88E
:1034A0000840FFF723BC00BF9C9C0000024B034A6E
:1034B0000348012100F07AB80060002000000020DD
:1034C000009F000008B503461048D0F89020C2F3D2
:1034D0000722013A934207D90D480E4A012105F00F
:1034E0006EFF6FF0150008BDC0F898300A6822F032
:1034F0001F021A4342F01002C0F89C208A6842F072
:103500000102C0F8A0201846EDE700BF00ED00E082
:10351000309E000028B00000F0B50E4685B01F4672
:1035200004460025B5420DDA606810B397B1431E1A
:1035300018420AD0104A11482B46012105F03FFFDE
:103540006FF01502104605B0F0BD1F28F2D92168B2
:103550000B42EFD12368019305F0EDFFA36801A9A9
:103560000343D0B20393FFF7ADFF10F1160FE7D07E
:10357000421C01350C34D5E74EB00000309E0000EF
:10358000044B0522C3F89420BFF34F8FBFF36F8F16
:10359000704700BF00ED00E0BFF35F8F024B0022D9
:1035A000C3F89420704700BF00ED00E038B50D4D22
:1035B00001232A780C46FFF7AFFF287016300FD191
:1035C000094A0A490A484FF4BF7305F0D4FC094878
:1035D000214605F0D0FC04484FF4BF7105F0C2FC51
:1035E00038BD00BF540E002071B0000082C2000040
:1035F000C9A20000B4B000002DE9F04F7B4C7C491B
:10360000D4F890300D68C3F307239D4285B013D9D9
:10361000784A7949794840F2F71305F0ACFCD4F8C0
:10362000902077482946C2F3072205F0A4FC40F217
:10363000F711704805F096FCFFF7AEFF49680022CD
:10364000954201F10C012DD16E4C6F4F25706846EB
:10365000FFF790FADFF8B481DFF8B4910646002551
:10366000AE4232D1237861490020D1F89020C2F3D4
:1036700007229342C0F2AF80FFF782FFD1F890306B
:10368000C3F30723082B00F0AC806249594A5B481A
:1036900040F2692305F06FFC5F4805F06CFC40F2D6
:1036A0006921C6E7C4F8982051F80C3C23F01F03A9
:1036B000134343F01003C4F89C3051F8043C43F02A
:1036C0000103C4F8A0300132BAE7009A02EB0513F7
:1036D0002901D3F80CA00AEA0700B0F5000F60D06A
:1036E0000AD8B0F5001F38D0B0F5800F4ED0B0F535
:1036F000801F12D00135B3E7B0F1807F5CD0B0F10C
:10370000007FF7D19868D3F804A0525805F013FF52
:10371000CDE901A240F480200BE09868D3F804A022
:10372000525805F008FFCDE901A240F0885040F45E
:1037300030200390207801A9FFF7C4FE002846DA64
:103740002D492C4A2D4840F2212305F014FC334822
:1037500005F011FC40F221216BE79868D3F804B022
:10376000525805F0E8FE1AF0010F40EA0800CDE9D2
:1037700001B20390DED02A491E4A2048832305F077
:10378000FAFB284805F0F7FB832152E79868D3F845
:1037900004A0525805F0CFFECDE901A240EA09008D
:1037A000C7E79868D3F804A0525805F0C4FECDE9E5
:1037B00001A240F08270BCE79868D3F804A0525888
:1037C00005F0B9FECDE901A240F08870B1E7237899
:1037D000013323708EE7C1F89830C1F8A00001339F
:1037E00043E7002005B0BDE8F08F00BF00ED00E02A
:1037F0000C9F000071B0000082C20000C9A200004E
:10380000E0B00000540E00200000F0FF000008119E
:103810000000020693B10000E3B1000069B10000AE
:1038200014B100003AB10000F0B587B007460E466B
:1038300014460021102268461D4606F05DF9022359
:103840008DF802302A46054B019321466846CDE9A2
:10385000047604F091FF07B0F0BD00BF579500005B
:1038600008B50649064821F00701C1F1005202F5EA
:10387000C042FCF7C7FF002008BD00BF5F2B00203F
:103880001C0D002048B1054B054A1B68B3FBF2F341
:103890005843044B43F0010318477047D4050020F8
:1038A00040420F00609E000008B502F029FC03466C
:1038B00068B10748074A012105F081FD06486FF00D
:1038C00004034362BDE80840143005F051BE08BD52
:1038D000D89D000017B20000C0040020044B93F8EC
:1038E0003A3013B1034802F0D7BCFFF7DDBF00BF89
:1038F000C0040020A9390000094BBFF35B8F53E8D7
:10390000002F511C43E800100028F8D1BFF35B8F53
:103910000AB9FFF7E3BF6FF00F025A62704700BFAA
:10392000C004002080B500AF88B06A46094BC2E9E8
:1039300005304FF400739383074B42F8103F07485C
:1039400000234FF4E251FEF74DFD6FF00400BD4639
:1039500080BD00BF31B2000003000001D89D00000F
:1039600010B500220D4904460D4806F085F80020E8
:1039700002F014FA024620B12068BDE81040FFF7BB
:10398000D1BF01210720FFF7F3FC0648C36813B934
:10399000043005F0EDFD002010BD00BFF938000037
:1039A00020050020C0040020F8B50378002B40F06B
:1039B000A3805C4CE36A94F850701F4225460BD1FB
:1039C000594B0022C3F80025A36A002B3FD157486A
:1039D000BDE8F84005F0CCBD018994F89800A26DCF
:1039E00094F85160A0B90121DBB20B420BD00F4219
:1039F00008D016EA010CB2F9000023D000EBD07019
:103A0000401010800232490089B2B942EDD9D7E79F
:103A1000334015D002EB41018A42D1D0B2F90030D7
:103A200003EBD3735B1022F8023BF5E732F9136026
:103A3000002EB8BF22F8130001338B42F6DBBFE73C
:103A40001846FAE70028B8BFA2F800C0DAE7236CEE
:103A5000B4F84C2033B1364936489847012826D06F
:103A600002283CD0B4F84C30B4F848209A4236D9F9
:103A70000133A4F84C3094F89830E3B9A36D94F86E
:103A8000522003EB4203A36594F85210A06D02F09C
:103A9000E3FA034678B1284A2848012105F08FFC53
:103AA0006FF004032148636205F062FD03E094F8BF
:103AB0009830002BE8D0E36B1BB9BDE8F840FFF766
:103AC0000DBFBFF35B8F55E8003F5A1E45E800214C
:103AD0000029F8D1BFF35B8F012BEEDCF8BDE36B5F
:103AE000002B3FF474AF94F89830002B7FF46FAF45
:103AF000134805F0CDFF6AE7022B0FD102F000FB5F
:103B000003460028EAD00D480E4A012105F057FC73
:103B100004486FF004034362143059E7052BDDD1EC
:103B200055E700BFC004002000700040D40400200E
:103B3000E80400207C9C000051B20000D89D0000E9
:103B40002005002017B2000030B587B00023039392
:103B5000CDF80F304B798DF813300B7913F0200529
:103B60000C4617D08A797F2A08BFFF228DF81420CF
:103B7000C3F3040203F01F03072B8DF815200BD9A4
:103B80005B4A5C48012105F01AFC6FF015052846D8
:103B900007B030BDFF22E9E722780C2A1ED8DFE803
:103BA00002F00A07111D131D151D1D17191D1B00FD
:103BB00001228DF80E206278032A15D0042A16D02F
:103BC0004D4A0CE00222F4E70322F2E70422F0E778
:103BD0000522EEE70622ECE70722EAE7474A4548D6
:103BE000012105F0E3FBD0E701228DF80F20628868
:103BF00044F20A018A4227D843F6FE718A4203D86A
:103C0000002A4BD03E4AEAE7A2F57F523F3A0B2A00
:103C1000F8D801A151F822F0A53C0000053C0000B5
:103C2000053C0000053C00006B3C0000053C00002A
:103C3000653C0000053C0000053C0000053C000020
:103C4000053C00009D3C000044F214018A4227D04C
:103C500044F228018A4225D044F20F018A42D1D190
:103C6000032200E001228DF810202649012000FAED
:103C700003F391F85020DBB26DB3A5797F2D13D1FA
:103C8000134381F85030237991F8512003F01F033A
:103C900000FA03F3134381F851300BE00222E2E70C
:103CA0000422E0E70522DEE722EA03028DF8110094
:103CB00081F8502003A802F0B7F8054600283FF429
:103CC00066AF237903F01F030F4A009001210948D2
:103CD00005F07FFB5BE7134381F85030237991F8BF
:103CE000512003F01F0300FA03F322EA0303D2E793
:103CF0006AB20000D89D0000A0B2000081B20000AE
:103D0000C4B20000C0040020EFB200002DE9FF4162
:103D10000F464FF0FF3389484FF0FF3202F048FF63
:103D20007E68731EFE2B05D9854A8648012105F061
:103D30003DFB10E00024254626FA04F3DA0715D5EA
:103D400002F0A4F8E040C3070ED47F4A23467D4822
:103D5000012105F034FB6FF01504784805F008FCEC
:103D6000204604B0BDE8F0810135EDB20134082CE5
:103D7000E2D10DB9754AD8E73B7CA3F10802062AC7
:103D80000FD8DFE802F0100E120E040E0C00022114
:103D9000012D7A7C0BD0002A57D06D4AC5E703214C
:103DA000F6E76C4AD3E70021F2E70121F0E7082AA1
:103DB00006D8DFE802F00808080808080808080024
:103DC0001346654AC3E73B68002B3ED05C68002C75
:103DD0003BD1186801387F2837D88DF808208DF836
:103DE00009401B885A1E7F2A0BD95C495C485D4AF2
:103DF00040F2F11305F0BFF85A4840F2F11105F016
:103E0000B1F81B01584A013BADF80A30012382F892
:103E100098308DF80C3002AA544B304602F098F8D6
:103E20000446002899D13B686A0013B19B8903FBC3
:103E30000222FB68934211D24248009201214C4A6F
:103E400005F0C7FA6FF00B0487E7474B002083F8B3
:103E50009800464B304602F035F8E1E7424E86F8CE
:103E6000525096F89830B868B065B04673B13B6868
:103E70009D890135A9B202F0EFF8044640B13D4AF0
:103E8000034601212F4805F09AFA66E72946F2E732
:103E9000BC46BCE80F00384D0FC5DCF800302B6085
:103EA00074623B68002B46D00FCB2F1D87E80F00B4
:103EB000F36BB762A6F84C40002B3CD0BFF35B8F8E
:103EC00058E8003F48E80042002AF9D1BFF35B8F71
:103ED00096F89810E9B9F06B284C294A4FF400473E
:103EE000E0FB074100232046FCF7E6F80022CDE97D
:103EF0000001002305F1280004F046FB21484FF0A3
:103F0000FF324FF0FF3302F053FE00B17062746A6B
:103F100023E702F0F5F803460028EFD01A4A0948D3
:103F2000012105F04CFA6FF00403A5F1240073623F
:103F300005F01EFBE2E7FFF7D1FCDFE7C404002039
:103F40000FB30000D89D00002DB3000047B3000060
:103F500082B300005DB30000B4B3000007B40000FA
:103F6000C9A20000D7B30000C0040020A939000096
:103F700032B4000051B20000E80400203F420F00BC
:103F800040420F00D404002017B2000037B50C46A1
:103F90000A490B4A411A402300934911054623461A
:103FA000084805F0E7FA011E05DA2846234603B063
:103FB000BDE83040184703B030BD00BF3C0D0020C5
:103FC000DD9500003C9C0000C9B2012908B509D963
:103FD00008490948094A7E2304F0CDFF07487E219D
:103FE00004F0C0FF03690C2201FB0233986C00F05F
:103FF000070008BDB0B40000C9A2000073B40000FF
:1040000070B5C9B2012903690BD918491848194A72
:1040100040F2D71304F0AFFF164840F2D71104F076
:10402000A1FFEFF31185202484F31288BFF36F8F73
:104030000C2606FB0134A46C14F0C00408D0A24284
:1040400006D085F31188BFF36F8F4FF0FF3070BD3E
:1040500071430B4401229A6485F31188BFF36F8F7B
:1040600043680B445B6898470020F0E7B0B4000059
:10407000C9A2000073B4000070B50D460649411A8C
:104080000446491105484022FFF7BAFF2B46014676
:104090002046BDE8704018473C0D00203C9C0000C5
:1040A0000022F8B5012105461046FFF761F91048D6
:1040B00000F02AFE0446B8B900F046FE2F690D490B
:1040C000384605F0AAF8031E09DB0126BE642D69F7
:1040D000084905F1200005F0A0F8031E02DA1C468D
:1040E0002046F8BD6E65FBE76FF00404F8E700BFFB
:1040F000AD4100002C9F00001FB500220123CDE937
:104100000223094ACDF800D06B46CDF804D005F063
:104110005EFA002805DB4FF480420023684602F077
:1041200047FD05B05DF804FBE995000010B5EFF31D
:104130001184202383F31288BFF36F8F074A13681B
:1041400023F00201DB07116002D4012000F04CFED5
:1041500084F31188BFF36F8F10BD00BF940D002052
:1041600030B4104B0C2202FB003301460020D3E98F
:1041700010521864EFF31180202484F31288BFF3E7
:104180006F8F9C6C04F0C00444F002049C6480F3C4
:104190001188BFF36F8F1DB12B46034830BC184701
:1041A00030BC70473C0D00203C9C0000012808B545
:1041B00006D0032808D098B90F4B9B6C5B0719D128
:1041C000BDE80840FFF7CCBF0C490D4A0D4840F24E
:1041D000FE2304F0D0FE40F2FE21094804F0C2FEA6
:1041E0000649074A07484FF4427304F0C4FE4FF4EF
:1041F0004271F2E708BD00BF3C0D002082C2000002
:1042000073B40000C9A2000010B4EFF311822023A0
:1042100083F31288BFF36F8F1748016841F00204DF
:104220000460C80707D482F31188BFF36F8F0120A1
:1042300010BC00F0ABBD4FF08041D1F80C04D1F8B8
:104240000C14C907EFD5EFF3118083F31288BFF385
:104250006F8F0A498B6C03F0C00343F002038B6439
:1042600080F31188BFF36F8F82F31188BFF36F8FD4
:10427000002010BCFFF774BF940D00203C0D0020FF
:104280002DE9F0414449BFF35B8F0646012251E816
:10429000003F41E800200028F9D1BFF35B8FA3B9AC
:1042A0003E493F484B60CB608A60FDF75BFC0028CD
:1042B0000BDA3C493C4A3D4840F2AA2304F05BFE3D
:1042C00040F2AA21384804F04DFE76B3731E012B4C
:1042D00058D8012E07D14FF08043D3F81C3403F097
:1042E0000303012B21D005F06BFB0546F8B9304BD9
:1042F0001B78E3B14FF080430222C3F8082307463E
:10430000DFF8B0804FF08044D4F81824D4F8183483
:10431000D20315D503F00303012B01D0012E0FD1D9
:1043200055B387F31188BFF36F8FBDE8F081EFF3CA
:104330001187202383F31288BFF36F8F0125DFE7F6
:10434000ADB1384605F0E8F8D4F81835002BDBD1CC
:10435000D4F80421002AD7D0C4F80431D4F80431A9
:104360000123C4F81835C8F88031A360CCE70021D8
:10437000212003F009FBE7E74FF080430222C3F856
:104380000423D2E70C49084A08484FF42F7304F07D
:10439000F2FD4FF42F7195E7380D0020280D002015
:1043A0005C0D002055A9000073B40000C9A20000F4
:1043B000550E002000E100E082C2000010B5036944
:1043C00061B92049204A21484F2304F0D4FD2048F8
:1043D00004F0D1FD4F211C4804F0C4FD486850B9D9
:1043E0001C49194A1948502304F0C5FD1A4804F025
:1043F000C2FD5021EFE75868F8B1884219D19C6896
:1044000008685860A14200D19860002008602AB175
:104410005A680A609A68596002B99960002010E0F1
:10442000814206D10868206098688142EDD19C6085
:10443000EBE7044600680028F2D1002AE8D16FF0CB
:10444000150010BD39B50000FDB40000C9A2000080
:1044500042B5000051B5000063B5000008B5026820
:10446000530904D14FF0FF33D340DB070BD4074986
:104470000748084A4FF4747304F07DFD05484FF473
:10448000747104F06FFD4FF0A04008BDC1B500008D
:10449000C9A200007AB5000070B54468207C01F024
:1044A0001F0545EA4015A06886B000286DD0B2F51A
:1044B000001F04D1294601F0A3F9002049E001A81A
:1044C0000026B2F5800F0196466031D1B3F1007F2E
:1044D00014BF052304238DF804300023CDE9040321
:1044E0000393E368CB40D90735D4B2F1A07F32D132
:1044F00068460095FFF7B2FF05F5E07350F82330EA
:10450000DB0728D4A0686A46294601F019F816305E
:1045100019D0CDF808D0A06803AA294600F0C6FE3D
:10452000002816DBA0680122294601F0E9F8C4E75B
:10453000B3F1C06F05D0B3F1007F14BF0123022394
:10454000C9E70323C7E7A068694601F0B9F8002866
:10455000DFDA06B070BDA0686A46294600F0F0FFB9
:104560000028D8D19DF80010A06801F08DF800282F
:10457000D1D007490748084A40F2E51304F0FBFC94
:10458000054840F2E51104F0EDFC6FF08500E0E72E
:10459000D7A50000C9A20000E4B50000430970B52A
:1045A00007D1124B596821B101250C68104E854086
:1045B00001B970BD8A682A4010D04B6863B90D49B3
:1045C0000D4A0E48742304F0D6FC0D4804F0D3FCC9
:1045D0000948742104F0C6FC304698471CB1236892
:1045E00021461C46E4E72346FAE700BF980D002069
:1045F0005C9C000010B60000FDB40000C9A20000E1
:1046000063B500002DE9F043476840F206363B7C75
:10461000D00687B001F01F0502EA060645EA4315F9
:1046200054BFC2F340130323B6F5837F14468DF8BD
:10463000033044D00DD8062E16D005D8A6B1022ED0
:104640003FD06FF0150037E0B6F5807FF9D1012635
:104650000AE040F20222964235D0B6F5407F34D0CF
:10466000B6F5007FEDD102260123220303FA01F102
:104670002DD57B68C3F80815B86870BB03A80395EF
:10468000FFF7ECFE84F4803300EB8500C3F30043B6
:10469000C4F34044D0F8002744EA43049DF80330B3
:1046A00022F4E16244EA830422F0070244EA06238A
:1046B0001343C0F80037002007B0BDE8F083072699
:1046C000D2E70426D0E70526CEE70326CCE763032E
:1046D00044BF7B68C3F80C15CEE70DF102022946F2
:1046E00000F02EFF14F4403F804617D1B8682946E9
:1046F00000F0B2FFB8F1000FDDD19DF80210B868EC
:1047000000F0C2FF0028D6D01E491F481F4AF423DC
:1047100004F031FC1D48F42104F024FC4FF00009A2
:1047200001ABCDE90199CDE90439CDF80C90B86819
:1047300003AA294600F0BAFD4845BCDB14F4003357
:1047400014D084F480349DF803308DF80E30C4F317
:1047500000448DF80C608DF80D40B8684B4603AAF4
:10476000294600F055FE0028C4DAA4E7CDE9043359
:104770000DF103030393B86803AA294600F096FDE0
:10478000F1E700BFD7A50000C9A20000E4B5000012
:1047900038B54568A86890B100F044FF014670B98B
:1047A000A86800F0FFFE044658B902460649A8680A
:1047B00000F0AEFE224605210620FEF7D9FD0020BE
:1047C00038BD6FF00400FBE79D45000070B40E4952
:1047D000D1E90034D01AC31844F1000422F07F4616
:1047E000C1E90034A6F50013B3F5400F09D2074B19
:1047F0001B681A0A1B069C19054B42F10005C3E908
:10480000004570BC03F0F6BC280B0020AC0D002066
:10481000300B00200D4B1868010A0006BFF35F8FB4
:104820000B4BD3F80435181841F10001B3F5801F84
:104830000AD2084BD3E90023904271EB030303D261
:1048400010F1807041F10001704700BFAC0D0020F5
:1048500000100140300B00202DE9F7432F4CD4F815
:10486000043399070BD5D4F8043143B12C4A002303
:10487000C4F80431D4F80431136801331360D4F858
:104880000433DA0329D5BFF35B8F264B53E8002F9F
:1048900022F0010143E800100028F7D1BFF35B8F3D
:1048A000D30702D4D4F84031BBB10025C4F840513D
:1048B000D4F84031FFF7AEFFEFF31182202383F3EA
:1048C0001288BFF36F8F184BD3E90267B042B9412A
:1048D00006D282F31188BFF36F8F03B0BDE8F08377
:1048E0004FF0FF384FF0FF39C3E90289D3E90010D8
:1048F0001D604FF48033C4F84833C4F84051D4F8F5
:10490000403182F31188BFF36F8F0029E5D000900A
:1049100032463B4628468847DFE700BF001001408B
:10492000AC0D0020A40D0020180B00202DE9F84F3D
:104930004B4DBFF35B8F06460F4655E8008F28F0BE
:10494000010345E80032002AF7D1BFF35B8F454CE5
:104950004FF48039C4F80893BFF35F8FBFF36F8FB4
:10496000FFF758FFB04271EB070308F0010840D28F
:104970003D4B301A67EB0101984271F100014CD2B6
:104980003A4BD3E902239F4208BF96423ED04FF0F4
:10499000000CC4F84893C4F840C126F07F40D4F816
:1049A0004031DFF8CCA0834603216FF0020E2BF0DC
:1049B0007F43C4F84035C4F84493D4F80425AEEBE3
:1049C00002035B4423F07F4353451FD9D4F84031A1
:1049D0005BB1D4F80425131A23F07F43B3F5000F1D
:1049E00014D9C4F840C1D4F8403101EB020B0131B5
:1049F000DDE7204BBFF35B8F53E8001F41F001015F
:104A000043E80012002AF7D1BFF35B8F174B1A4A15
:104A10001A60C3E9026700225A60B8F1000F1CD087
:104A2000BFF35B8F55E8003F43F0010345E80032D8
:104A3000002AF7D1BFF35B8F4FF48033C4F80433FF
:104A40000C4BBFF35B8F1B68BFF35B8FDB0742BF71
:104A50000A4B4FF40032C3F80021BDE8F88F00BFC5
:104A6000A80D00200010014001008000180B00205C
:104A7000FDFF7F00A40D0020CD47000000E100E015
:104A800070B5194C194BC4F80833C4F84833184BA7
:104A900000254FF0FF304FF0FF31C4F80855C3E94F
:104AA00002014FF48033C4F80433124B02264FF452
:104AB0000032C4F804630121C3F8802111202A4682
:104AC000FEF756FC1120FEF737FC01230A4AA360CB
:104AD0000021236009481360FFF728FF3046FFF7E5
:104AE000CFFB284670BD00BF0010014003000F003F
:104AF000180B002000E100E0A80D0020FFFF7F0060
:104B0000431C10B50F4C05D08442A8BF0446012CAD
:104B1000B8BF0124FFF77EFE0B4AD2E90031C01A6C
:104B2000B0F5000F074A0AD22044904228BF104631
:104B3000C018BDE8104041F10001FFF7F7BE104674
:104B4000F6E700BFFFFF7F00280B002008B5FFF746
:104B500061FE024B1B68C01A08BD00BF280B002075
:104B60004FF08053D3F830210A2A06D1D3F83431DC
:104B7000022B04D8034AD05C704700207047012004
:104B8000704700BF2AB60000024AD2F80034002B5A
:104B9000FBD0704700E0014010B54FF08053D3F8D0
:104BA00030210A2A5BD1D3F844224FF08041C2F36E
:104BB0004232C1F83C250022C1F80C21C1F8102175
:104BC000C1F83825484AD3F80404C2F82005D3F8C0
:104BD0000804C2F82405D3F80C04C2F82805D3F859
:104BE0001004C2F82C05D3F81404C2F83005D3F829
:104BF0001804C2F83405D3F81C04C2F84005D3F8F1
:104C00002004C2F84405D3F82404C2F84805D3F8B8
:104C10002804C2F84C05D3F82C04C2F85005D3F888
:104C20003004C2F85405D3F83404C2F86005D3F850
:104C30003804C2F86405D3F83C04C2F86805D3F818
:104C40004004C2F86C05D3F84434C2F87035D1F88A
:104C50000034DA0709D56FF00103C1F800344FF0D2
:104C60008053D3F830310A2B0FD14FF08053D3F853
:104C70003431022B09D8DB0741BF4FF08042D2F814
:104C8000E43E43F00F03C2F8E43EFFF769FF48B388
:104C90004FF010214FF08043D1F80822C3F8582577
:104CA000FFF75EFFF0B1D1F80031013303D0D1F846
:104CB0000431013316D10D4801234FF01024C0F800
:104CC00004350021FFF760FFC4F80011FFF75CFF17
:104CD000C4F80411FFF758FFC0F80415BDE81040F0
:104CE000FFF752BF10BD00BF00C0004000E0014010
:104CF000014B00201B681847B00D0020014B1B68BA
:104D0000184700BFB00D002010B50C4C237993B9A3
:104D1000012323710A4B2060002818BF184600F0B9
:104D2000CBF850B923680748002BBDE8104008BFF6
:104D3000184600F03DB96FF0770010BDB00D0020AF
:104D4000F14C0000FD4C000008B50C4B1A794AB933
:104D50000B490C480C4AAD2304F00DF90A48AD216B
:104D600004F000F91B683BB10020FEF7F3FA18B914
:104D7000BDE80840FEF7E0BA08BD00BFB00D002056
:104D80007EB60000C9A200002DB6000008B5114B88
:104D90001B794BB91049114A1148FE2304F0EBF876
:104DA000FE210E4804F0DEF858B101280DD00D495F
:104DB0000A4A0B4840F21B1304F0DDF840F21B11C5
:104DC000EFE7BDE8084000F005B9BDE8084000F095
:104DD00087B800BFB00D00207EB600002DB60000E1
:104DE000C9A2000082C2000008B5124B1B795BB952
:104DF0001149124A12484FF4917304F0BCF84FF471
:104E000091710E4804F0AEF828B1012807D1BDE831
:104E1000084000F093B8BDE8084000F02BB90949FC
:104E2000064A074840F23F1304F0A5F840F23F114C
:104E3000E7E700BFB00D00207EB600002DB60000F1
:104E4000C9A2000082C200004FF08053D3F8302185
:104E50000A2A06D1D3F83431022B02D8024AD05C98
:104E600070470020704700BFF3B6000038B54FF020
:104E700080440123C4F8083363600023C4F8003180
:104E8000D4F8003142F21075D4F80C24D4F80C3464
:104E9000D20307D5DB0705D5012004F0E4FB013D73
:104EA000F2D138BDFFF7D0FF0028FAD0014B002225
:104EB0005A71F6E7B80D002010B508490C794CB9C5
:104EC000012308600B71FFF7BFFF08B9002010BD78
:104ED0004C71FBE76FF07700F9E700BFB80D0020D9
:104EE00008B512490B794BB911491248124A772378
:104EF00004F041F81048772104F034F84FF0804373
:104F00000022C3F80021D3F8002101221A600968A9
:104F100011B1C3F8042308BDD3F80021002AFBD047
:104F20000022C3F80021D3F80031F4E7B80D0020C7
:104F30007EB60000C9A200009CB6000008B5084B70
:104F40001B794BB907490848084A892304F013F82C
:104F50000648892104F006F8BDE80840FFF786BF3F
:104F6000B80D00207EB60000C9A200009CB600006B
:104F700010B54FF08043D3F80423D20715D5D3F8EA
:104F8000002192B10022C3F800210121D3F80021B1
:104F9000C3F80813FFF758FF044B10B15A7922B930
:104FA0005971BDE810401B68184710BDB80D0020AE
:104FB000074A137943B90121106011714FF0804203
:104FC0001846C2F8183570476FF07700704700BF79
:104FD000C00D002010B5234C23794BB9224923483A
:104FE000234AE32303F0C7FF2148E32103F0BAFF7C
:104FF0004FF08043D3F81814D3F81824C80319D5F8
:1050000002F00302012A03D00AB104F070FB00226F
:105010004FF08043C3F818250022C3F80421D3F8C9
:10502000042101229A60226872B9D3F80421002A6F
:10503000FBD011E0D3F81424D107E8D5D3F81C2411
:105040009207E2D422681AB10222C3F8042310BDE9
:10505000D3F80421002AFBD00022C3F80421D3F89E
:105060000431F4E7C00D00207EB60000C9A20000A4
:10507000F6B6000008B5094B1B795BB90849094829
:10508000094A4FF4907303F076FF07484FF490718C
:1050900003F068FFBDE8084004F029BBC00D002004
:1050A0007EB60000C9A20000F6B60000F8B54FF0C9
:1050B00080431F4FD3F80443012504F01A0400264F
:1050C00004B9F8BDB4FA84F0C0F11F00830003F501
:1050D00080739BB203F1804305FA00F2196824EA59
:1050E00002040029ECD01E601B684FF080430128A9
:1050F000C3F808230FD1D3F81824D3F81824920743
:1051000002D03B689847DBE70222C3F81805C3F8D2
:1051100004239860D4E707490748084A4FF4F4731A
:1051200003F029FF05484FF4F47103F01BFF00BFA3
:10513000C00D002082C20000C9A20000F6B6000027
:1051400008B502680146104604F0EAFA58B90F495A
:105150000F4A10484FF4747303F00DFF4FF474714D
:105160000B4803F0FFFE02F01F0352090B6009D049
:105170000949074A074840F2D93303F0FCFE40F2E0
:10518000D931EDE74FF0A04008BD00BFC1B5000028
:105190007AB50000C9A2000082C20000072808B545
:1051A0000BD908490848094A40F2A73303F0E3FE47
:1051B000064840F2A73103F0D5FE800000F580706C
:1051C00008BD00BF96B70000C9A200004DB700009F
:1051D00010B5CBB200EB43039A8AD1051BD5C2F3BD
:1051E000432122F4F8529A8200F1520400F1120293
:1051F00032F8023F13F4807F03D0C3F34323994274
:1052000009D09442F4D100EBC10300225A60583017
:1052100004F049FA00B910BD05490648064A4FF4A2
:10522000DB7303F0A8FE04484FF4DB7103F09AFE31
:10523000D7A50000C9A20000A0B7000073B5CEB288
:1052400000EB46060546B38ADB070C4628D504F07A
:1052500049FB2146284604F06DFA48B1B28A2B6812
:10526000520B03EB82030022C3F81025C3F810256C
:10527000284621460025FFF7ABFFB58201A801941F
:10528000FFF75EFF019B00EB8300074BD0F8002780
:10529000134043F00203C0F80037284602B070BD47
:1052A0006FF01500FAE700BFF0F8FCFFF0B50D460F
:1052B00085B01646044658B952495348534A40F2FD
:1052C0003A4303F058FE514840F23A4103F04AFE97
:1052D0001768CFB104F03CFA00BBCDE900008DF8AF
:1052E0000E008DF80F003B460DF10F020DF10E017F
:1052F000284604F057FAEAB204EB4202938A23F0FC
:10530000020343F001039382736853B32946204696
:105310001A785F6804F015FA18B1CFB16FF0150074
:1053200022E0E9B204EB41018B8A23F4604323F0CD
:1053300020038B8267B1032AF0D87368586823680A
:10534000077803EB87038AB9C3F81025C3F8102543
:10535000E9B204EB41018B8A23F01C0343EA820388
:105360008B82B3684BBB002005B0F0BDD3F81005AD
:1053700020F00300C3F81005206800EB8700D0F888
:10538000103523F4473323F44073C0F810352B0253
:10539000D0F810C503F4F85343EA024343EA0C0380
:1053A000C0F8103504EB4703A3F85C508B8A43EA3E
:1053B000473343F020038B82CAE7D3E900672946CD
:1053C0002046FFF705FF002ECDD063689E4206D031
:1053D00004F1580004F049F9002804DAC4E7A3688E
:1053E0009F42F5D1002004EBC003C3E90167EDB291
:1053F00004EB4505C0B2AB8A43EA402343F4807313
:10540000AB82B0E731B80000C9A20000A0B700002D
:10541000F0B50C4685B01E46054658B939493A489C
:105420003A4A40F2444303F0A6FD384840F2444172
:1054300003F098FD12B304F084F920B92146284600
:1054400004F078F908BBE7B205EB4707BB8A13F015
:105450001C0F02D05378012B17D001238DF80F3089
:105460000023CDE900230DF10F01931C20460132EA
:1054700004F098F9BB8A43F00303BB82002E3FD0AF
:105480002146284604F05DF918B96FF0150005B003
:10549000F0BD37782B6803EB87030022C3F8102593
:1054A000C3F81025E2B205EB42024FEA870C938A5B
:1054B00023F4604323F020039382707800B32968BB
:1054C000B67861440004D1F8103523F4981323F41E
:1054D000F853C1F81035230200F4403003F4F853B8
:1054E00003433005D1F8105500F4801003432B43DB
:1054F000C1F81035938A43EA473343F0200393827F
:105500000020C4E731B80000C9A20000A0B7000025
:1055100008B558B907490848084A40F24D4303F016
:105520002AFD064840F24D4103F01CFDC0E903127C
:1055300008BD00BF31B80000C9A20000A0B700003C
:1055400010B503460C4658B91249134A134840F2A5
:10555000564303F010FD40F256410F4803F002FDA0
:105560004AB90F490C4A0D484FF4457303F003FD47
:105570004FF44571F1E704F0DDF838B1E4B203EB24
:10558000440300209B8A5B0B137010BD6FF0150065
:10559000FBE700BF31B80000A0B70000C9A20000BF
:1055A0003CB80000F8B5054658B91B491B481C4AD1
:1055B00040F2644303F0DFFC194840F2644103F019
:1055C000D1FC90F86C4024BB40222146143004F0FA
:1055D00093FA2E682746E0B2FFF7E0FDA0F580734E
:1055E0009B081F2B08BF375004F1010408BF335834
:1055F000082CF0D10024C6F87C4146F30730D6F8D9
:105600007C31FDF799FE012385F86C30AB652046AF
:10561000F8BD6FF07700FBE731B80000C9A20000C9
:10562000A0B7000008B558B908490948094A40F22E
:105630006B4303F0A0FC074840F26B4103F092FC7F
:1056400090F86C00003818BF012008BD31B8000088
:10565000C9A20000A0B7000008B558B9074908481A
:10566000084A40F2794303F086FC064840F279414B
:1056700003F078FCBDE80840FFF7E0BD31B800005A
:10568000C9A20000A0B7000008B558B908490948E8
:10569000094A4FF4906303F06EFC07484FF49061A1
:1056A00003F060FCBDE80840044803F0FCBF00BF05
:1056B00031B80000C9A20000A0B70000D805002042
:1056C00010B50C4658B90A490A480B4A40F28743BC
:1056D00003F051FC084840F2874103F043FC0748BF
:1056E00003F0C3FF0028A4BF2070002010BD00BF3E
:1056F00031B80000C9A20000A0B70000D805002002
:105700002DE9F3410D461646044658B93749384A43
:10571000384840F2045303F02EFC40F20451344860
:1057200003F020FCCBB200EB43039A8A12F01C0F6B
:1057300009D131492E4A2F4840F2114303F01BFC96
:1057400040F21141EBE703F0F5FF2768F0B129467D
:10575000204603F0F6FF8046C0B9550B2846FFF7F8
:105760001DFD47F800803B58236803EB8503D3F801
:10577000102542F00102C3F8102526B1226801234A
:10578000AB40C2F8043302B0BDE8F081D7F804237F
:10579000002AA4BF4FF00042C7F804234EB91749AE
:1057A000134A144840F22B4303F0E5FB40F22B412F
:1057B000B5E79B8AC3F38203042B12D0052B12D0CA
:1057C00001A80195FFF7BCFC019BD0F81015D9404A
:1057D00001F001010231284602B0BDE8F04104F0B9
:1057E0002EB80321F7E70221F5E700BF31B800002A
:1057F000A0B70000C9A2000010B8000046B8000021
:1058000008B558B907490848084A40F20B5303F055
:10581000B2FB064840F20B5103F0A4FBBDE8084080
:1058200004F060B831B80000C9A20000A0B70000C1
:105830002DE9F04F074685B058B962496248634A7E
:105840004FF4C76303F097FB60484FF4C76103F060
:1058500089FB8046082258F8049BD9F80413C9B282
:1058600041F00041484604F010F8051E16DA002306
:10587000012102A8029303F0F1FF4FF0010A029AFE
:1058800092B94FF00041484603F0FFFF012102A802
:1058900003F0E4FF0028F2D125F000450124002D9B
:1058A00079D105B0BDE8F08F92FAA2F4B4FA84F48D
:1058B00007EB4403E0089E8A039402ABB2081B5C2A
:1058C000019204F0070102AA0AFA01F123EA010396
:1058D000135403A8FFF734FC039B019A03F5E0730C
:1058E000C6F3820B50F8233052075E46C3F30143E0
:1058F00033D53246214640465FFA83FB03F035FF3D
:1059000003A80394FFF71CFC039B03F5E07350F816
:105910002330C3F301439B4507D10021204603F008
:105920008EFF5946204603F08AFF03A80394FFF731
:1059300007FC039B0AFA03F3C0F820354FF08053AD
:10594000D3F830310A2B01BFD0F82035D0F82035FC
:10595000D0F82035D0F8203591E7022B0DD1032166
:10596000204603F06CFF0BF00503012BDDD132461E
:105970002146404603F0F9FED7E702212046019375
:1059800003F05DFFBBF1030FF1D0019B032BCCD1E2
:10599000BBF1020FEAE795FAA5F3B3FA83F304FA31
:1059A00003F225EA020503F5A27207EB430359F857
:1059B0002220B3F85C10C2F30142404603F0D5FE4A
:1059C0006DE700BF31B80000C9A20000A0B7000019
:1059D00080F08003042B04D8054B034413F8800C9B
:1059E000704707289ABF034B185C0020704700BF20
:1059F000F9B90000FEB90000054B93F82E00431ED4
:105A0000012B03D9043818BF0120704700207047CC
:105A1000C80D002010B5164A16490020C2F800052E
:105A200091F82F40D2F8043381F82E400C6823F00F
:105A300033030CB143F02303C2F81C01D2F81C411C
:105A4000C2F81801D2F81841C2F80801D2F80821AA
:105A500091F83320D00791F8342048BF43F08003F9
:105A6000D207034A48BF43F04003C2F8003310BDD9
:105A700000700040C80D002070B50D4A002392F858
:105A8000301001251E4618B90BB182F8301070BDD8
:105A900090FAA0F3B3FA83F305FA03F40C3302EBA4
:105AA000430320EA0400DE8021EA04010123EAE73F
:105AB000C80D002038B548B91449154A1548962331
:105AC00003F059FA9621124803F04CFAFF2807D93F
:105AD00011490F4A0F48972303F04DFA9721F2E737
